:020000000000FE
:020001000003FA
:020002000006F6
:02000300000AF1
:02000400000DED
:020005000011E8
:020006000014E4
:020007000018DF
:02000800001BDB
:02000900001ED7
:02000A000022D2
:02000B000025CE
:02000C000028CA
:02000D00002CC5
:02000E00002FC1
:02000F000032BD
:020010000035B9
:020011000039B4
:02001200003CB0
:02001300003FAC
:020014000042A8
:020015000045A4
:020016000048A0
:02001700004C9B
:02001800004F97
:02001900005293
:02001A0000558F
:02001B0000588B
:02001C00005B87
:02001D00005E83
:02001E0000617F
:02001F0000647B
:02002000006777
:02002100006A73
:02002200006D6F
:0200230000706B
:02002400007367
:02002500007564
:02002600007860
:02002700007B5C
:02002800007E58
:02002900008154
:02002A00008450
:02002B0000864D
:02002C00008949
:02002D00008C45
:02002E00008F41
:02002F0000913E
:0200300000943A
:02003100009736
:02003200009933
:02003300009C2F
:02003400009F2B
:0200350000A128
:0200360000A424
:0200370000A621
:0200380000A91D
:0200390000AB1A
:02003A0000AE16
:02003B0000B013
:02003C0000B30F
:02003D0000B50C
:02003E0000B808
:02003F0000BA05
:0200400000BD01
:0200410000BFFE
:0200420000C2FA
:0200430000C4F7
:0200440000C6F4
:0200450000C9F0
:0200460000CBED
:0200470000CDEA
:0200480000D0E6
:0200490000D2E3
:02004A0000D4E0
:02004B0000D6DD
:02004C0000D9D9
:02004D0000DBD6
:02004E0000DDD3
:02004F0000DFD0
:0200500000E1CD
:0200510000E4C9
:0200520000E6C6
:0200530000E8C3
:0200540000EAC0
:0200550000ECBD
:0200560000EEBA
:0200570000F0B7
:0200580000F2B4
:0200590000F4B1
:02005A0000F6AE
:02005B0000F8AB
:02005C0000FAA8
:02005D0000FCA5
:02005E0000FEA2
:02005F0001009E
:0200600001029B
:02006100010498
:02006200010695
:02006300010892
:02006400010990
:02006500010B8D
:02006600010D8A
:02006700010F87
:02006800011184
:02006900011282
:02006A0001147F
:02006B0001167C
:02006C00011879
:02006D00011977
:02006E00011B74
:02006F00011D71
:02007000011E6F
:0200710001206C
:02007200012269
:02007300012367
:02007400012564
:02007500012761
:0200760001285F
:02007700012A5C
:02007800012B5A
:02007900012D57
:02007A00012E55
:02007B00013052
:02007C00013150
:02007D0001334D
:02007E0001344B
:02007F00013648
:02008000013746
:02008100013943
:02008200013A41
:02008300013B3F
:02008400013D3C
:02008500013E3A
:02008600013F38
:02008700014135
:02008800014233
:02008900014331
:02008A0001452E
:02008B0001462C
:02008C0001472A
:02008D00014828
:02008E00014A25
:02008F00014B23
:02009000014C21
:02009100014D1F
:02009200014E1D
:0200930001501A
:02009400015118
:02009500015216
:02009600015314
:02009700015412
:02009800015510
:0200990001560E
:02009A0001570C
:02009B0001580A
:02009C00015908
:02009D00015A06
:02009E00015B04
:02009F00015C02
:0200A000015D00
:0200A100015EFE
:0200A200015FFC
:0200A3000160FA
:0200A4000161F8
:0200A5000162F6
:0200A6000163F4
:0200A7000164F2
:0200A8000165F0
:0200A9000165EF
:0200AA000166ED
:0200AB000167EB
:0200AC000168E9
:0200AD000169E7
:0200AE000169E6
:0200AF00016AE4
:0200B000016BE2
:0200B100016CE0
:0200B200016CDF
:0200B300016DDD
:0200B400016EDB
:0200B500016FD9
:0200B600016FD8
:0200B7000170D6
:0200B8000171D4
:0200B9000171D3
:0200BA000172D1
:0200BB000172D0
:0200BC000173CE
:0200BD000174CC
:0200BE000174CB
:0200BF000175C9
:0200C0000175C8
:0200C1000176C6
:0200C2000176C5
:0200C3000177C3
:0200C4000177C2
:0200C5000178C0
:0200C6000178BF
:0200C7000179BD
:0200C8000179BC
:0200C9000179BB
:0200CA00017AB9
:0200CB00017AB8
:0200CC00017BB6
:0200CD00017BB5
:0200CE00017BB4
:0200CF00017CB2
:0200D000017CB1
:0200D100017CB0
:0200D200017DAE
:0200D300017DAD
:0200D400017DAC
:0200D500017DAB
:0200D600017EA9
:0200D700017EA8
:0200D800017EA7
:0200D900017EA6
:0200DA00017FA4
:0200DB00017FA3
:0200DC00017FA2
:0200DD00017FA1
:0200DE00017FA0
:0200DF00017F9F
:0200E000017F9E
:0200E10001809C
:0200E20001809B
:0200E30001809A
:0200E400018099
:0200E500018098
:0200E600018097
:0200E700018096
:0200E800018095
:0200E900018094
:0200EA00018093
:0200EB00018092
:0200EC00018091
:0200ED00018090
:0200EE0001808F
:0200EF0001808E
:0200F00001808D
:0200F10001808C
:0200F20001808B
:0200F300017F8B
:0200F400017F8A
:0200F500017F89
:0200F600017F88
:0200F700017F87
:0200F800017F86
:0200F900017F85
:0200FA00017E85
:0200FB00017E84
:0200FC00017E83
:0200FD00017E82
:0200FE00017E81
:0200FF00017D81
:02010000017D7F
:02010100017D7E
:02010200017C7E
:02010300017C7D
:02010400017C7C
:02010500017C7B
:02010600017B7B
:02010700017B7A
:02010800017A7A
:02010900017A79
:02010A00017A78
:02010B00017978
:02010C00017977
:02010D00017976
:02010E00017876
:02010F00017875
:02011000017775
:02011100017774
:02011200017674
:02011300017673
:02011400017573
:02011500017572
:02011600017472
:02011700017471
:02011800017371
:02011900017370
:02011A00017270
:02011B0001726F
:02011C0001716F
:02011D0001706F
:02011E0001706E
:02011F00016F6E
:02012000016F6D
:02012100016E6D
:02012200016D6D
:02012300016D6C
:02012400016C6C
:02012500016B6C
:02012600016B6B
:02012700016A6B
:0201280001696B
:0201290001686B
:02012A0001686A
:02012B0001676A
:02012C0001666A
:02012D00016669
:02012E00016569
:02012F00016469
:02013000016369
:02013100016269
:02013200016268
:02013300016168
:02013400016068
:02013500015F68
:02013600015E68
:02013700015D68
:02013800015C68
:02013900015C67
:02013A00015B67
:02013B00015A67
:02013C00015967
:02013D00015867
:02013E00015767
:02013F00015667
:02014000015567
:02014100015467
:02014200015367
:02014300015267
:02014400015167
:02014500015067
:02014600014F67
:02014700014E67
:02014800014D67
:02014900014C67
:02014A00014B67
:02014B00014A67
:02014C00014967
:02014D00014867
:02014E00014767
:02014F00014568
:02015000014468
:02015100014368
:02015200014268
:02015300014168
:02015400014068
:02015500013F68
:02015600013D69
:02015700013C69
:02015800013B69
:02015900013A69
:02015A00013969
:02015B0001376A
:02015C0001366A
:02015D0001356A
:02015E0001346A
:02015F0001326B
:0201600001316B
:0201610001306B
:02016200012E6C
:02016300012D6C
:02016400012C6C
:02016500012B6C
:0201660001296D
:0201670001286D
:0201680001276D
:0201690001256E
:02016A0001246E
:02016B0001226F
:02016C0001216F
:02016D0001206F
:02016E00011E70
:02016F00011D70
:02017000011B71
:02017100011A71
:02017200011971
:02017300011772
:02017400011672
:02017500011473
:02017600011373
:02017700011174
:02017800011074
:02017900010E75
:02017A00010D75
:02017B00010B76
:02017C00010A76
:02017D00010877
:02017E00010777
:02017F00010578
:02018000010379
:02018100010279
:0201820001007A
:0201830000FF7B
:0201840000FD7C
:0201850000FC7C
:0201860000FA7D
:0201870000F87E
:0201880000F77E
:0201890000F57F
:02018A0000F380
:02018B0000F280
:02018C0000F081
:02018D0000EE82
:02018E0000ED82
:02018F0000EB83
:0201900000E984
:0201910000E884
:0201920000E685
:0201930000E486
:0201940000E287
:0201950000E187
:0201960000DF88
:0201970000DD89
:0201980000DB8A
:0201990000DA8A
:02019A0000D88B
:02019B0000D68C
:02019C0000D48D
:02019D0000D38D
:02019E0000D18E
:02019F0000CF8F
:0201A00000CD90
:0201A10000CB91
:0201A20000C992
:0201A30000C892
:0201A40000C693
:0201A50000C494
:0201A60000C295
:0201A70000C096
:0201A80000BE97
:0201A90000BC98
:0201AA0000BA99
:0201AB0000B999
:0201AC0000B79A
:0201AD0000B59B
:0201AE0000B39C
:0201AF0000B19D
:0201B00000AF9E
:0201B10000AD9F
:0201B20000ABA0
:0201B30000A9A1
:0201B40000A7A2
:0201B50000A5A3
:0201B60000A3A4
:0201B70000A1A5
:0201B800009FA6
:0201B900009DA7
:0201BA00009BA8
:0201BB000099A9
:0201BC000097AA
:0201BD000095AB
:0201BE000093AC
:0201BF000091AD
:0201C000008FAE
:0201C100008DAF
:0201C200008BB0
:0201C3000088B2
:0201C4000086B3
:0201C5000084B4
:0201C6000082B5
:0201C7000080B6
:0201C800007EB7
:0201C900007CB8
:0201CA00007AB9
:0201CB000078BA
:0201CC000075BC
:0201CD000073BD
:0201CE000071BE
:0201CF00006FBF
:0201D000006DC0
:0201D100006BC1
:0201D2000068C3
:0201D3000066C4
:0201D4000064C5
:0201D5000062C6
:0201D6000060C7
:0201D700005DC9
:0201D800005BCA
:0201D9000059CB
:0201DA000057CC
:0201DB000054CE
:0201DC000052CF
:0201DD000050D0
:0201DE00004ED1
:0201DF00004BD3
:0201E0000049D4
:0201E1000047D5
:0201E2000045D6
:0201E3000042D8
:0201E4000040D9
:0201E500003EDA
:0201E600003BDC
:0201E7000039DD
:0201E8000037DE
:0201E9000034E0
:0201EA000032E1
:0201EB000030E2
:0201EC00002DE4
:0201ED00002BE5
:0201EE000029E6
:0201EF000026E8
:0201F0000024E9
:0201F1000021EB
:0201F200001FEC
:0201F300001DED
:0201F400001AEF
:0201F5000018F0
:0201F6000015F2
:0201F7000013F3
:0201F8000011F4
:0201F900000EF6
:0201FA00000CF7
:0201FB000009F9
:0201FC000007FA
:0201FD000004FC
:0201FE000002FD
:0201FF000000FE
:00000001FF
