:020000004000BE
:020001003FF9C5
:020002003FF2CB
:020003003FEBD1
:020004003FE4D7
:020005003FDCDE
:020006003FD5E4
:020007003FCDEB
:020008003FC5F2
:020009003FBCFA
:02000A003FB401
:02000B003FAB09
:02000C003FA211
:02000D003F9919
:02000E003F9021
:02000F003F8729
:020010003F7D32
:020011003F743A
:020012003F6A43
:020013003F5F4D
:020014003F5556
:020015003F4B5F
:020016003F4069
:020017003F3573
:020018003F2A7D
:020019003F1F87
:02001A003F1392
:02001B003F089C
:02001C003EFCA8
:02001D003EF0B3
:02001E003EE4BE
:02001F003ED7CA
:020020003ECBD5
:020021003EBEE1
:020022003EB1ED
:020023003EA4F9
:020024003E9705
:020025003E8A11
:020026003E7C1E
:020027003E6E2B
:020028003E6038
:020029003E5245
:02002A003E4452
:02002B003E3560
:02002C003E276D
:02002D003E187B
:02002E003E0989
:02002F003DFA98
:020030003DEAA7
:020031003DDBB5
:020032003DCBC4
:020033003DBBD3
:020034003DABE2
:020035003D9BF1
:020036003D8B00
:020037003D7A10
:020038003D6A1F
:020039003D592F
:02003A003D483F
:02003B003D374F
:02003C003D2560
:02003D003D1470
:02003E003D0281
:02003F003CF093
:020040003CDEA4
:020041003CCCB5
:020042003CBAC6
:020043003CA7D8
:020044003C95E9
:020045003C82FB
:020046003C6F0D
:020047003C5C1F
:020048003C4931
:020049003C3544
:02004A003C2256
:02004B003C0E69
:02004C003BFA7D
:02004D003BE690
:02004E003BD2A3
:02004F003BBDB7
:020050003BA9CA
:020051003B94DE
:020052003B80F1
:020053003B6B05
:020054003B551A
:020055003B402E
:020056003B2B42
:020057003B1557
:020058003B006B
:020059003AEA81
:02005A003AD496
:02005B003ABEAB
:02005C003AA7C1
:02005D003A91D6
:02005E003A7AEC
:02005F003A6401
:020060003A4D17
:020061003A362D
:020062003A1F43
:020063003A075A
:0200640039F071
:0200650039D888
:0200660039C19E
:0200670039A9B5
:020068003991CC
:020069003979E3
:02006A003960FB
:02006B00394812
:02006C00393029
:02006D00391741
:02006E0038FE5A
:02006F0038E572
:0200700038CC8A
:0200710038B3A2
:02007200389ABA
:020073003880D3
:020074003866EC
:02007500384D04
:0200760038331D
:02007700381936
:0200780037FF50
:0200790037E569
:02007A0037CA83
:02007B0037B09C
:02007C003795B6
:02007D00377AD0
:02007E00375FEA
:02007F00374404
:0200800037291E
:02008100370E38
:0200820036F353
:0200830036D76E
:0200840036BB89
:0200850036A0A3
:020086003684BE
:020087003668D9
:02008800364CF4
:0200890036300F
:02008A0036132B
:02008B0035F747
:02008C0035DA63
:02008D0035BD7F
:02008E0035A19A
:02008F003584B6
:020090003567D2
:020091003549EF
:02009200352C0B
:02009300350F27
:0200940034F145
:0200950034D461
:0200960034B67E
:0200970034989B
:02009800347AB8
:02009900345CD5
:02009A00343EF2
:02009B0034200F
:02009C0034012D
:02009D0033E34B
:02009E0033C469
:02009F0033A587
:0200A0003387A4
:0200A1003368C2
:0200A2003349E0
:0200A3003329FF
:0200A400330A1D
:0200A50032EB3C
:0200A60032CB5B
:0200A70032AC79
:0200A800328C98
:0200A900326CB7
:0200AA00324DD5
:0200AB00322DF4
:0200AC00320D13
:0200AD0031EC34
:0200AE0031CC53
:0200AF0031AC72
:0200B000318B92
:0200B100316BB1
:0200B200314AD1
:0200B300312AF0
:0200B400310910
:0200B50030E831
:0200B60030C751
:0200B70030A671
:0200B800308492
:0200B9003063B2
:0200BA003042D2
:0200BB003020F3
:0200BC002FFF14
:0200BD002FDD35
:0200BE002FBB56
:0200BF002F9977
:0200C0002F7897
:0200C1002F56B8
:0200C2002F33DA
:0200C3002F11FB
:0200C4002EEF1D
:0200C5002ECD3E
:0200C6002EAA60
:0200C7002E8881
:0200C8002E65A3
:0200C9002E42C5
:0200CA002E20E6
:0200CB002DFD09
:0200CC002DDA2B
:0200CD002DB74D
:0200CE002D946F
:0200CF002D7191
:0200D0002D4DB4
:0200D1002D2AD6
:0200D2002D07F8
:0200D3002CE31C
:0200D4002CC03E
:0200D5002C9C61
:0200D6002C7884
:0200D7002C55A6
:0200D8002C31C9
:0200D9002C0DEC
:0200DA002BE910
:0200DB002BC533
:0200DC002BA156
:0200DD002B7C7A
:0200DE002B589D
:0200DF002B34C0
:0200E0002B0FE4
:0200E1002AEB08
:0200E2002AC62C
:0200E3002AA24F
:0200E4002A7D73
:0200E5002A5897
:0200E6002A33BB
:0200E7002A0EDF
:0200E80029E904
:0200E90029C428
:0200EA00299F4C
:0200EB00297A70
:0200EC00295594
:0200ED002930B8
:0200EE00290ADD
:0200EF0028E502
:0200F00028C026
:0200F100289A4B
:0200F200287470
:0200F300284F94
:0200F4002829B9
:0200F5002803DE
:0200F60027DE03
:0200F70027B828
:0200F80027924D
:0200F900276C72
:0200FA00274697
:0200FB002720BC
:0200FC0026FAE2
:0200FD0026D308
:0200FE0026AD2D
:0200FF00268752
:02010000266176
:02010100263A9C
:020102002614C1
:0201030025EDE8
:0201040025C70D
:0201050025A033
:02010600257959
:0201070025537E
:02010800252CA4
:020109002505CA
:02010A0024DEF1
:02010B0024B816
:02010C0024913C
:02010D00246A62
:02010E00244388
:02010F00241CAE
:0201100023F5D5
:0201110023CEFB
:0201120023A622
:02011300237F48
:0201140023586E
:02011500233194
:020116002309BB
:0201170022E2E2
:0201180022BB08
:0201190022932F
:02011A00226C55
:02011B0022447C
:02011C00221DA2
:02011D0021F5CA
:02011E0021CEF0
:02011F0021A617
:02012000217E3E
:02012100215764
:02012200212F8B
:020123002107B2
:0201240020DFDA
:0201250020B701
:02012600209027
:0201270020684E
:02012800204075
:0201290020189C
:02012A001FF0C4
:02012B001FC8EB
:02012C001FA012
:02012D001F7839
:02012E001F5060
:02012F001F2887
:020130001F00AE
:020131001ED8D6
:020132001EAFFE
:020133001E8725
:020134001E5F4C
:020135001E3773
:020136001E0F9A
:020137001DE6C3
:020138001DBEEA
:020139001D9611
:02013A001D6D39
:02013B001D4560
:02013C001D1D87
:02013D001CF4B0
:02013E001CCCD7
:02013F001CA4FE
:020140001C7B26
:020141001C534D
:020142001C2A75
:020143001C029C
:020144001BDAC4
:020145001BB1EC
:020146001B8913
:020147001B603B
:020148001B3862
:020149001B0F8A
:02014A001AE7B2
:02014B001ABEDA
:02014C001A9601
:02014D001A6D29
:02014E001A4550
:02014F001A1C78
:0201500019F4A0
:0201510019CBC8
:0201520019A2F0
:02015300197A17
:0201540019513F
:02015500192966
:0201560019008E
:0201570018D8B6
:0201580018AFDE
:02015900188705
:02015A00185E2D
:02015B00183555
:02015C00180D7C
:02015D0017E4A5
:02015E0017BCCC
:02015F001793F4
:02016000176B1B
:02016100174243
:02016200171A6A
:0201630016F193
:0201640016C9BA
:0201650016A0E2
:02016600167809
:02016700164F31
:02016800162758
:0201690015FE81
:02016A0015D6A8
:02016B0015ADD0
:02016C001585F7
:02016D00155C1F
:02016E00153446
:02016F00150B6E
:0201700014E396
:0201710014BBBD
:020172001492E5
:02017300146A0C
:02017400144233
:0201750014195B
:0201760013F183
:0201770013C9AA
:0201780013A1D1
:020179001378F9
:02017A00135020
:02017B00132847
:02017C0013006E
:02017D0012D896
:02017E0012AFBE
:02017F001287E5
:02018000125F0C
:02018100123733
:02018200120F5A
:0201830011E782
:0201840011BFA9
:020185001197D0
:02018600116FF7
:0201870011471E
:02018800111F45
:0201890010F76D
:02018A0010D093
:02018B0010A8BA
:02018C001080E1
:02018D00105808
:02018E0010312E
:02018F00100955
:020190000FE17D
:020191000FBAA3
:020192000F92CA
:020193000F6BF0
:020194000F4317
:020195000F1C3D
:020196000EF465
:020197000ECD8B
:020198000EA5B2
:020199000E7ED8
:02019A000E57FE
:02019B000E2F25
:02019C000E084B
:02019D000DE172
:02019E000DBA98
:02019F000D93BE
:0201A0000D6CE4
:0201A1000D450A
:0201A2000D1E30
:0201A3000CF757
:0201A4000CD07D
:0201A5000CA9A3
:0201A6000C82C9
:0201A7000C5CEE
:0201A8000C3514
:0201A9000C0E3A
:0201AA000BE860
:0201AB000BC186
:0201AC000B9BAB
:0201AD000B74D1
:0201AE000B4EF6
:0201AF000B271C
:0201B0000B0141
:0201B1000ADB67
:0201B2000AB58C
:0201B3000A8EB2
:0201B4000A68D7
:0201B5000A42FC
:0201B6000A1C21
:0201B70009F647
:0201B80009D06C
:0201B90009AB90
:0201BA000985B5
:0201BB00095FDA
:0201BC000939FF
:0201BD00091423
:0201BE0008EE49
:0201BF0008C96D
:0201C00008A392
:0201C100087EB6
:0201C2000859DA
:0201C3000833FF
:0201C400080E23
:0201C50007E948
:0201C60007C46C
:0201C700079F90
:0201C800077AB4
:0201C9000755D8
:0201CA000731FB
:0201CB00070C1F
:0201CC0006E744
:0201CD0006C367
:0201CE00069E8B
:0201CF00067AAE
:0201D0000655D2
:0201D1000631F5
:0201D200060D18
:0201D30005E83D
:0201D40005C460
:0201D50005A083
:0201D600057CA6
:0201D7000558C9
:0201D8000535EB
:0201D90005110E
:0201DA0004ED32
:0201DB0004CA54
:0201DC0004A677
:0201DD00048399
:0201DE00045FBC
:0201DF00043CDE
:0201E000041900
:0201E10003F623
:0201E20003D345
:0201E30003B067
:0201E400038D89
:0201E500036AAB
:0201E6000347CD
:0201E7000325EE
:0201E800030210
:0201E90002E032
:0201EA0002BD54
:0201EB00029B75
:0201EC00027996
:0201ED000257B7
:0201EE000235D8
:0201EF000213F9
:0201F00001F11B
:0201F10001CF3C
:0201F20001AD5D
:0201F300018C7D
:0201F400016A9E
:0201F5000149BE
:0201F6000127DF
:0201F7000106FF
:0201F80000E520
:0201F90000C440
:0201FA0000A360
:0201FB00008280
:0201FC000061A0
:0201FD000041BF
:0201FE000020DF
:0201FF000000FE
:00000001FF
